:100000000C9424010C946B090C94D6090C948A0A64
:100010000C9441010C943D0A0C9441010C94410153
:100020000C9441010C9441010C9441010C94410148
:100030000C9441010C9441010C94A9030C944101CE
:100040000C9441010C9441010C9483030C944101E4
:100050000C9441010C94A70A0C9441010C944101A9
:100060000C9441010C944101000000000000005F6D
:1000700000000007000700147F147F14242A7F2A41
:10008000122313086462364955225000050300000C
:10009000001C2241000041221C0014083E081408E4
:1000A000083E0808005030000008080808080060F2
:1000B00060000020100804023E5149453E00427F86
:1000C000400042615149462141454B311814127F8D
:1000D0001027454545393C4A494930017109050316
:1000E0003649494936064949291E0036360000007E
:1000F0005636000008142241001414141414004150
:100100002214080201510906324979413E7E11113B
:10011000117E7F494949363E414141227F4141227A
:100120001C7F494949417F090909013E4149497AF2
:100130007F0808087F00417F41002040413F017F48
:10014000081422417F404040407F020C027F7F0420
:1001500008107F3E4141413E7F090909063E415159
:10016000215E7F09192946464949493101017F012C
:10017000013F4040403F1F2040201F3F4038403F4C
:100180006314081463070870080761514945430068
:100190007F41410002040810200041417F00040219
:1001A0000102044040404040000102040020545439
:1001B00054787F48444438384444442038444448C0
:1001C0007F3854545418087E0901020C5252523E92
:1001D0007F0804047800447D40002040443D007FB7
:1001E0001028440000417F40007C041804787C08FB
:1001F00004047838444444387C1414140808141453
:10020000187C7C080404084854545420043F44409B
:10021000203C4040207C1C2040201C3C4030403C86
:1002200044281028440C5050503C4464544C440022
:100230000836410000007F00000041360800100829
:10024000081008000000000011241FBECFEFD8E006
:10025000DEBFCDBF11E0A0E0B1E0EEE1FCE102C005
:1002600005900D92A23AB107D9F723E0A2EAB1E0D6
:1002700001C01D92A33FB207E1F70E9443010C9415
:100280000D0E0C9400000E94210B0E94510B8091D6
:10029000EF039091F003A0E0B0E04091A2015091F3
:1002A000A3016091A4017091A501841B950BA60B7D
:1002B000B70B8C329140A105B10580F00E94C003BC
:1002C0008091EF039091F003A0E0B0E08093A20151
:1002D0009093A301A093A401B093A5010E946E0680
:1002E0000E94B8070E9412080E94A4080E941109E7
:1002F000CECF98B19F7D98B9662329F098B19860C8
:1003000098B990E01FC098B1977F98B9FACF47E0AD
:1003100050E0491B5109282F30E002C03595279540
:100320004A95E2F720FF04C028B1206128B903C034
:1003300028B12F7E28B928B1206428B928B12F7B95
:1003400028B99F5F983018F388B1806288B9089502
:1003500060E00E947901089561E00E9479010895AA
:10036000CF93DF9387B1806287B987B1846087B903
:1003700087B1886087B987B1806187B987B18064A8
:1003800087B988B1846088B988B1806288B983EC04
:1003900099E00197F1F700C0000088B18B7F88B920
:1003A0008BE594E40197F1F700C0000088B1846008
:1003B00088B988B18F7D88B981E20E94A80183E164
:1003C0000E94A80186E00E94A80182EC0E94A80178
:1003D00080E20E94A80189E00E94A80180E80E94B2
:1003E000A80180E40E94A801C0E0D0E004C080E041
:1003F0000E94AC012196C83F91E0D907C0F388E084
:100400000E94A8018CE00E94A801DF91CF9108957D
:1004100080E80E94A80180E40E94A80110929E0337
:1004200010929F0380E090E005C0FC01EA55FE4F6A
:1004300010820196883F21E09207B8F30895262F95
:1004400026952695269590E034E5239F800D911DF5
:100450001124442379F0677021E030E002C0220FBC
:10046000331F6A95E2F7FC01EA55FE4F8081282B85
:1004700020830895677021E030E002C0220F331F0F
:100480006A95E2F7FC01EA55FE4F2095808128230A
:1004900020830895EF92FF920F931F93CF93DF93E2
:1004A000E82EF62E00E045C02E2D30E02052310916
:1004B000802F6F2D0E94980DF901EE0FFF1FEE0F98
:1004C000FF1FE20FF31FE80FF11DE859FF4FE49102
:1004D000812F0E94980DF0E002C0F595E7958A956E
:1004E000E2F7E0FF0AC060919F0380919E03610FD5
:1004F00041E0800F0E941F0209C060919F0380911C
:100500009E03610F40E0800F0E941F021F5F01C029
:1005100010E0212F30E0CE01880F991F880F991F1E
:10052000880F991F8C1B9D0B281739070CF4BCCF23
:100530000F5F202F30E0CF2DD0E0CE01880F991F24
:10054000880F991F8C0F9D1F281739070CF3EEE9B0
:10055000F3E08F2D880F880F8F0D9081890F8F5FAB
:100560008083843570F010929E03EFE9F3E08F2DC5
:10057000880F880F880F982F9F198081890F8F5FB0
:10058000808380919F03803320F010929E0310920D
:100590009F03DF91CF911F910F91FF90EF900895EE
:1005A0001F93CF93DF93EC01162F04C02196612F88
:1005B0000E944A0288818111F9CFDF91CF911F916A
:1005C000089580939E0360939F030895CF93DF93D4
:1005D00080E80E94A80180E40E94A801C0E0D0E069
:1005E00007C0FE01EA55FE4F80810E94AC012196B2
:1005F000C83F81E0D807A8F3DF91CF910895909389
:10060000C5008093C40088E98093C1008AE080938C
:10061000C20008958091C00085FFFCCF21E030E04A
:1006200040E050E014C0F901EE5DFE4F808190E0A3
:10063000C0970A9754F4F901EA5DFE4F808190E07B
:10064000C0970A9714F44F5F5F4F2F5F3F4F2430DE
:1006500031054CF3809122018B33E1F480912A0122
:100660008A33C1F4809126018835A1F443305105C5
:1006700089F40AC0FC01EE5DFE4F2081FC01E85EBA
:10068000FE4F2083019602C081E090E08830910502
:100690008CF308951092D6031092D50381E090E078
:1006A00009C0FC01E05FFE4F2081FC01E85EFE4FC7
:1006B0002083019688309105A4F308958091C000AD
:1006C0008823E4F78091D5039091D6032091C6004A
:1006D000FC01EE5DFE4F20838830910539F40E94C5
:1006E0000A031092D6031092D503089501969093B1
:1006F000D6038093D50308959091C00095FFFCCF59
:100700008093C60008951F920F920FB60F92112486
:100710002F933F934F935F936F937F938F939F9309
:10072000AF93BF93EF93FF930E945E030E947C03FD
:10073000FF91EF91BF91AF919F918F917F916F91B9
:100740005F914F913F912F910F900FBE0F901F908F
:1007500018951F920F920FB60F9211248F939F93AB
:100760008091EF039091F00301969093F0038093B2
:10077000EF039F918F910F900FBE0F901F901895D0
:10078000EF92FF920F931F93CF93DF93E0900401BA
:10079000F09005018091080190910901CAE0D0E034
:1007A000BE010E94A40DE4ECF3E0805D8183605DF6
:1007B00060838091CB039091CC0304E610E0B801F4
:1007C0000E94A40D262FBE010E94A40DEFEBF3E0C2
:1007D000805D8283605D6183205D2083C701B801F5
:1007E0000E94A40D262FBE010E94A40DEAEBF3E0A7
:1007F000805D83838EE28283605D6183205D2083E0
:100800006091CF037091D0038091D1039091D20376
:1008100024E630E040E050E00E94B80DF22E2AE0DD
:1008200030E040E050E00E94B80DE6EBF3E0605DA0
:100830006283205D218380E38F0D80838091CD03CF
:100840009091CE03B8010E94A40D262FBE010E94F4
:10085000A40DE2EBF3E0805D8283605D6183205D47
:10086000208380910E01805D8093B003ECEAF3E079
:1008700080910C01805D80838AE3818380910A01ED
:10088000805D82838091D3039091D403009709F017
:100890005DC00E94080260E080E00E94E10261E029
:1008A0008BE291E00E94D00268E080E00E94E102C9
:1008B00061E089E391E00E94D0026CE080E00E9458
:1008C000E10261E086EB93E00E94D0026CE083E2FB
:1008D0000E94E10261E088E491E00E94D00265E1BB
:1008E00080E00E94E10261E08FEB93E00E94D00281
:1008F00065E183E20E94E10261E08CE491E00E9404
:10090000D0026EE180E00E94E10261E08AEB93E0B8
:100910000E94D0026EE183E20E94E10261E082E582
:1009200091E00E94D00268E280E00E94E10261E072
:1009300089E191E00E94D00268E282E30E94E10234
:1009400061E084E591E00E94D002BFC18230910550
:1009500009F05DC00E94080260E080E00E94E102B0
:1009600061E089E591E00E94D00267E080E00E94AA
:10097000E10261E089E391E00E94D0026BE080E057
:100980000E94E10261E084EC93E00E94D0026BE0FF
:1009900083E20E94E10261E088E691E00E94D002D9
:1009A00064E180E00E94E10261E082EB93E00E945A
:1009B000D00264E183E20E94E10261E083E791E01A
:1009C0000E94D0026EE180E00E94E10261E080EBD3
:1009D00093E00E94D0026EE183E20E94E10261E0B6
:1009E00088E791E00E94D00268E280E00E94E10284
:1009F00061E08CEA93E00E94D00268E283E20E9408
:100A0000E10261E08DE791E00E94D0025EC1843096
:100A1000910509F05DC00E94080260E080E00E943C
:100A2000E10261E089E591E00E94D00267E080E0A8
:100A30000E94E10261E089E391E00E94D0026BE054
:100A400080E00E94E10261E084EC93E00E94D00229
:100A50006BE083E20E94E10261E089E691E00E949E
:100A6000D00264E180E00E94E10261E082EB93E069
:100A70000E94D00264E183E20E94E10261E082E729
:100A800091E00E94D0026EE180E00E94E10261E00C
:100A900080EB93E00E94D0026EE183E20E94E102CB
:100AA00061E088E791E00E94D00268E280E00E9465
:100AB000E10261E08CEA93E00E94D00268E283E206
:100AC0000E94E10261E08DE791E00E94D002FDC04A
:100AD0008630910509F05DC00E94080260E080E068
:100AE0000E94E10261E089E591E00E94D00267E0A6
:100AF00080E00E94E10261E089E391E00E94D0027F
:100B00006BE080E00E94E10261E084EC93E00E94EF
:100B1000D0026BE083E20E94E10261E089E691E0AD
:100B20000E94D00264E180E00E94E10261E082EB79
:100B300093E00E94D00264E183E20E94E10261E05E
:100B400083E791E00E94D0026EE180E00E94E10222
:100B500061E080EB93E00E94D0026EE183E20E94AC
:100B6000E10261E087E791E00E94D00268E280E064
:100B70000E94E10261E08CEA93E00E94D00268E208
:100B800083E20E94E10261E08DE791E00E94D002E1
:100B90009CC08830910509F05DC00E94080260E0A9
:100BA00080E00E94E10261E089E591E00E94D002CC
:100BB00067E080E00E94E10261E089E391E00E9449
:100BC000D0026BE080E00E94E10261E084EC93E0FF
:100BD0000E94D0026BE083E20E94E10261E089E6BC
:100BE00091E00E94D00264E180E00E94E10261E0B5
:100BF00082EB93E00E94D00264E183E20E94E10272
:100C000061E083E791E00E94D0026EE180E00E9403
:100C1000E10261E080EB93E00E94D0026EE183E2AA
:100C20000E94E10261E088E791E00E94D00268E260
:100C300080E00E94E10261E08CEA93E00E94D00231
:100C400068E283E20E94E10261E08CE791E00E94A9
:100C5000D0023BC00A97C9F50E94080260E080E01C
:100C60000E94E10261E089E591E00E94D00267E024
:100C700080E00E94E10261E089E391E00E94D002FD
:100C80006BE080E00E94E10261E080E891E00E9478
:100C9000D0028091F1039091F2038130910551F4DB
:100CA00066E180E00E94E10262E08DE891E00E944E
:100CB000D0020BC0029749F466E180E00E94E10295
:100CC00062E087E991E00E94D0020E94E602DF9193
:100CD000CF911F910F91FF90EF9008954F925F92E7
:100CE0006F927F928F929F92AF92BF92CF92DF923C
:100CF000EF92FF92CF93DF93609108017091090109
:100D0000072E000C880B990B0E94760C9B01AC01FE
:100D100060E070E080E792E40E94CC0B6B017C0104
:100D2000C0910E01D0910F01BE016F5F7F4F660F22
:100D3000771F072E000C880B990B0E94760C9B01E5
:100D4000AC01C701B6010E94CC0B20E030E04AE7BD
:100D500054E40E942B0D6B017C018090E303909082
:100D6000E403A090E503B090E6036091EF03709177
:100D7000F003CB01A0E0B0E0BC01CD016819790916
:100D80008A099B090E94740C4B015C01609100016F
:100D90007091010180910201909103019B01AC01CE
:100DA0000E945B0B9B01AC01C701B6010E942B0D99
:100DB0002B013C01C0900A01D0900B01E0900C0186
:100DC000F0900D01B6016E0D7F1D072E000C880BF3
:100DD000990B0E94760C9B01AC01C301B2010E94E9
:100DE000CC0B9B01AC01C501B4010E94260D8823E8
:100DF0000CF4AFC08DE28C9FB0018D9F700D11245B
:100E0000072E000C880B990B0E94760C4B015C019D
:100E10002091A8033091A9034091AA035091AB03FC
:100E20000E94C70B181644F01092A8031092A90351
:100E30001092AA031092AB03BE01DD0F880B990B31
:100E40000E94760C20E030E044EB51E40E942B0D30
:100E50004090A8035090A9036090AA037090AB0340
:100E6000A30192010E94C70B1816ECF0A301920196
:100E7000C501B4010E945A0B6093A4037093A503AB
:100E80008093A6039093A703B601DD0C880B990B02
:100E90000E94760C6093000170930101809302011F
:100EA0009093030116C04092A4035092A503609250
:100EB000A6037092A703B701FF0C880B990B0E9441
:100EC000760C60930001709301018093020190936E
:100ED00003012FE832EC41E351E46091A4037091E7
:100EE000A5038091A6039091A7030E942B0D9B015F
:100EF000AC0160E070E08AE795E40E945A0B0E9422
:100F0000450C709389006093880020E030E044EB4A
:100F100051E46091A8037091A9038091AA03909174
:100F2000AB030E945B0B6093A8037093A9038093AB
:100F3000AA039093AB038091EF039091F003A0E09C
:100F4000B0E08093E3039093E403A093E503B093B0
:100F5000E603DF91CF91FF90EF90DF90CF90BF90AD
:100F6000AF909F908F907F906F905F904F9008957B
:100F70008091CD039091CE0324E1289FB001299F59
:100F8000700D1124072E000C880B990B0E94760C13
:100F90009B01AC0160E070E08AE795E40E945A0B87
:100FA0000E94450C70938B0060938A0008950F9304
:100FB0001F93CF93DF93C7EDD3E08C819D81AE81EA
:100FC000BF81088119812A813B81BC01CD01601B51
:100FD000710B820B930B0E94740C9B01AC0160E0BF
:100FE00070E08AE794E40E94CC0B20E030E040EF10
:100FF00051E40E942B0D0E943E0C6093CF0370932E
:10100000D0038093D1039093D203188219821A825D
:101010001B821C821D821E821F82DF91CF911F9135
:101020000F91089580910401909105018F55914091
:10103000CB9720F08BB180628BB903C08BB18F7DD1
:101040008BB98091CB039091CC03CD9724F48BB1D5
:1010500080648BB903C08BB18F7B8BB98091880082
:1010600090918900803A9F4021F48BB180688BB9C0
:1010700008958BB18F778BB908956091C7037091F4
:10108000C8036B3981E0780738F48CE291E09093E3
:101090000501809304012EC06E3C82E0780738F091
:1010A00082EC91E0909305018093040123C0CB0171
:1010B000880F991F880F991F680F791F80E090E0B3
:1010C0000E94740C20E030E040E85AE30E942B0DAF
:1010D00020E030E040E85FE30E945B0B2AE037ED60
:1010E00043E25CE30E94CC0B0E943E0C709305012E
:1010F000609304016091C9037091CA03633383E074
:10110000780738F084E690E09093CC038093CB038B
:101110000895633383E07807B0F480E090E00E94A4
:10112000740C20E030E048EC52E40E942B0D20E0EB
:1011300030EC4CE454E40E94CC0B0E943E0C7093C3
:10114000CC036093CB0308950F931F93189B32C079
:101150008091EF039091F003A0E0B0E04091E703AD
:101160005091E8036091E9037091EA038C019D01BD
:10117000041B150B260B370BB901A801483E534041
:101180006105710508F44AC02091080130910901F8
:101190002630310514F02150310930930901209394
:1011A00008018093E7039093E803A093E903B093C9
:1011B000EA0334C08091EF039091F003A0E0B0E027
:1011C0004091E7035091E8036091E9037091EA03CD
:1011D0008C019D01041B150B260B370BB901A801CF
:1011E000483E534061057105C8F0209108013091D7
:1011F000090140910601509107012417350714F4A5
:101200002F5F3F4F30930901209308018093E7033C
:101210009093E803A093E903B093EA031F910F9121
:1012200008958091F1039091F2038130910521F4AA
:1012300085B1886085B905C0029719F485B1877FAB
:1012400085B94091EB035091EC036091ED037091EF
:10125000EE038091EF039091F003A0E0B0E0841BD7
:10126000950BA60BB70B883E9340A105B10590F1F5
:101270008091A2039091A303009741F085B18F7EE6
:1012800085B91092A3031092A20316C00196A1F093
:101290008091F1039091F203181619066CF41092E4
:1012A000F2031092F10385B1806185B981E090E08D
:1012B0009093A3038093A2038091EF039091F00396
:1012C000A0E0B0E08093EB039093EC03A093ED03D8
:1012D000B093EE0308951F920F920FB60F92112450
:1012E0008F939F938091D3039091D4038230910583
:1012F00089F480910801909109018E3191050CF4D7
:1013000001969093090180930801909307018093BF
:10131000060145C08430910569F48091CD03909118
:10132000CE03843691050CF40A969093CE038093F5
:10133000CD0335C08630910569F480910E019091FE
:101340000F01883091050CF4019690930F01809362
:101350000E0125C088309105D1F480910A01909149
:101360000B018230910534F0019790930B0180932B
:101370000A0115C080910C0190910D0183309105F7
:1013800074F4019690930D0180930C0108C00A97A4
:1013900031F481E090E09093F2038093F1039F9108
:1013A0008F910F900FBE0F901F9018951F920F9264
:1013B0000FB60F9211248F939F938091D303909136
:1013C000D4038430910569F48091CD039091CE03CC
:1013D000181619060CF40A979093CE038093CD0348
:1013E00045C08230910569F480910801909109010E
:1013F000863091050CF001979093090180930801C4
:1014000035C08630910569F480910E0190910F01ED
:10141000823091050CF0019790930F0180930E019B
:1014200025C088309105D1F480910C0190910D0177
:10143000823091056CF480910A0190910B01833008
:101440009105A4F4019690930B0180930A010EC0BC
:10145000019790930D0180930C0108C00A9731F415
:1014600082E090E09093F2038093F1039F918F913B
:101470000F900FBE0F901F9018951F920F920FB6EE
:101480000F9211242F933F934F935F936F937F930A
:101490008F939F93AF93BF93EF93FF938091D70365
:1014A0009091D803A091D903B091DA03892B8A2BAC
:1014B0008B2B79F48091EF039091F003A0E0B0E0E2
:1014C0008093D7039093D803A093D903B093DA0302
:1014D00010C08091EF039091F003A0E0B0E0809302
:1014E000DB039093DC03A093DD03B093DE030E9443
:1014F000D707FF91EF91BF91AF919F918F917F910E
:101500006F915F914F913F912F910F900FBE0F9070
:101510001F9018951F920F920FB60F9211248F9360
:101520009F938091D3039091D40301969093D40319
:101530008093D3030C9724F01092D4031092D3031A
:101540009F918F910F900FBE0F901F9018951F9233
:101550000F920FB60F9211242F933F934F935F93E7
:101560006F937F938F939F93AF93BF93EF93FF936B
:101570004091DF035091E0036091E1037091E20339
:101580008091EF039091F003A0E0B0E0841B950BF5
:10159000A60BB70B86399105A105B10508F440C02B
:1015A0008091A0039091A103892BC1F481E48093E1
:1015B0007C008DE380937E0080917800909179008B
:1015C0009093CA038093C9038091A0039091A103D3
:1015D00001969093A1038093A00312C080E48093AE
:1015E0007C008EE380937E0080917800909179005A
:1015F0009093C8038093C7031092A1031092A00395
:101600008091EF039091F003A0E0B0E08093DF03BE
:101610009093E003A093E103B093E2030E943D089E
:10162000FF91EF91BF91AF919F918F917F916F91BA
:101630005F914F913F912F910F900FBE0F901F9090
:1016400018958EEB84B981E485B980EE8AB98FE173
:101650008BB98AE08093690093E09DBB82E084BDF2
:1016600095BD99EF97BD80936E0085E080936800EB
:1016700080E180936D0080E480936B008FEE809317
:101680007A0010927B008FE39CE99093870080930F
:10169000860082EA809380008AE1809381007894BA
:1016A00008950E94B0010E94C00387E690E00E9466
:1016B000FF0208955058BB27AA270E94720B0C9472
:1016C000EC0C0E94DE0C38F00E94E50C20F039F49E
:1016D0009F3F19F426F40C94DB0C0EF4E095E7FB25
:1016E0000C94D50CE92F0E94FD0C58F3BA17620731
:1016F00073078407950720F079F4A6F50C941F0D65
:101700000EF4E0950B2EBA2FA02D0B01B90190011C
:101710000C01CA01A0011124FF27591B99F0593F60
:1017200050F4503E68F11A16F040A22F232F342FA8
:101730004427585FF3CF469537952795A795F040F6
:101740005395C9F77EF41F16BA0B620B730B840B0B
:10175000BAF09150A1F0FF0FBB1F661F771F881FC3
:10176000C2F70EC0BA0F621F731F841F48F487951B
:1017700077956795B795F7959E3F08F0B0CF93950D
:10178000880F08F09927EE0F9795879508950E9486
:10179000B10C08F481E008950E94E00B0C94EC0C6D
:1017A0000E94E50C58F00E94DE0C40F029F45F3FE7
:1017B00029F00C94D50C51110C94200D0C94DB0CD9
:1017C0000E94FD0C68F39923B1F3552391F3951B07
:1017D000550BBB27AA2762177307840738F09F5F52
:1017E0005F4F220F331F441FAA1FA9F335D00E2EBF
:1017F0003AF0E0E832D091505040E695001CCAF72C
:101800002BD0FE2F29D0660F771F881FBB1F2617EE
:1018100037074807AB07B0E809F0BB0B802DBF01C5
:10182000FF2793585F4F3AF09E3F510578F00C9494
:10183000D50C0C94200D5F3FE4F3983ED4F38695CD
:1018400077956795B795F7959F5FC9F7880F911DB5
:101850009695879597F90895E1E0660F771F881FA1
:10186000BB1F621773078407BA0720F0621B730B54
:10187000840BBA0BEE1F88F7E09508950E94450C83
:101880006894B1110C94200D08950E94050D88F004
:101890009F5798F0B92F9927B751B0F0E1F0660F34
:1018A000771F881F991F1AF0BA95C9F714C0B13075
:1018B00091F00E941F0DB1E008950C941F0D672F49
:1018C000782F8827B85F39F0B93FCCF386957795A4
:1018D0006795B395D9F73EF490958095709561958D
:1018E0007F4F8F4F9F4F0895E89409C097FB3EF4B8
:1018F00090958095709561957F4F8F4F9F4F99235D
:10190000A9F0F92F96E9BB279395F69587957795DA
:101910006795B795F111F8CFFAF4BB0F11F460FF9A
:101920001BC06F5F7F4F8F4F9F4F16C0882311F0F2
:1019300096E911C0772321F09EE8872F762F05C006
:10194000662371F096E8862F70E060E02AF09A95A1
:10195000660F771F881FDAF7880F9695879597F996
:101960000895990F0008550FAA0BE0E8FEEF161630
:101970001706E807F907C0F012161306E407F50783
:1019800098F0621B730B840B950B39F40A2661F0F7
:10199000232B242B252B21F408950A2609F4A1409A
:1019A000A6958FEF811D811D089597F99F6780E8A7
:1019B00070E060E008959FEF80EC089500240A94A1
:1019C0001616170618060906089500240A9412161A
:1019D0001306140605060895092E0394000C11F44D
:1019E000882352F0BB0F40F4BF2B11F460FF04C0FA
:1019F0006F5F7F4F8F4F9F4F089557FD9058440F53
:101A0000551F59F05F3F71F04795880F97FB991F5D
:101A100061F09F3F79F0879508951216130614061A
:101A2000551FF2CF4695F1DF08C0161617061806A7
:101A3000991FF1CF86957105610508940895E89482
:101A4000BB2766277727CB0197F908950E94B10C31
:101A500008F48FEF08950E943E0D0C94EC0C0E9448
:101A6000DE0C38F00E94E50C20F0952311F00C9468
:101A7000D50C0C94DB0C11240C94200D0E94FD0C51
:101A800070F3959FC1F3950F50E0551F629FF001D1
:101A9000729FBB27F00DB11D639FAA27F00DB11DEA
:101AA000AA1F649F6627B00DA11D661F829F222773
:101AB000B00DA11D621F739FB00DA11D621F839FFA
:101AC000A00D611D221F749F3327A00D611D231FD0
:101AD000849F600D211D822F762F6A2F11249F571E
:101AE00050409AF0F1F088234AF0EE0FFF1FBB1F21
:101AF000661F771F881F91505040A9F79E3F5105E0
:101B000080F00C94D50C0C94200D5F3FE4F3983ECC
:101B1000D4F3869577956795B795F795E7959F5F89
:101B2000C1F7FE2B880F911D9695879597F908951B
:101B3000991B79E004C0991F961708F0961B881F1F
:101B40007A95C9F78095089597FB072E16F40094AF
:101B500007D077FD09D00E94D70D07FC05D03EF4D1
:101B6000909581959F4F0895709561957F4F089549
:101B7000052E97FB1EF400940E94CF0D57FD07D051
:101B80000E94EB0D07FC03D04EF40C94CF0D509542
:101B90004095309521953F4F4F4F5F4F0895909559
:101BA0008095709561957F4F8F4F9F4F0895AA1B29
:101BB000BB1B51E107C0AA1FBB1FA617B70710F038
:101BC000A61BB70B881F991F5A95A9F7809590956A
:101BD000BC01CD010895A1E21A2EAA1BBB1BFD0179
:101BE0000DC0AA1FBB1FEE1FFF1FA217B307E407FC
:101BF000F50720F0A21BB30BE40BF50B661F771F54
:101C0000881F991F1A9469F7609570958095909533
:0E1C10009B01AC01BD01CF010895F894FFCFF8
:101C1E000000803F1E0005000500010001000100CC
:101C2E00204552524F52200000484848584C4C4CC8
:101C3E00000046464646464646464653494E4149AC
:101C4E005320564954414953002D2D2D2D2D2D2D08
:101C5E002D2D2D2D2D2D2D0062706D002553704FC5
:101C6E00320043006D6D4867002020504152414DB7
:101C7E004554524F532020002A726573702F4D69C0
:101C8E006E002A254F32002A766F6C002A494500D5
:101C9E00202020416C742E2043616D610020202095
:101CAE005550212020200020444F4E572120202027
:021CBE00000024
:00000001FF
